{
    "_format": "hh-sol-artifact-1",
    "contractName": "Campaign",
    "sourceName": "contracts/Campaign.sol",
    "abi": [
        {
            "inputs": [
                {
                    "internalType": "address",
                    "name": "_creator",
                    "type": "address"
                },
                {
                    "internalType": "string",
                    "name": "_title",
                    "type": "string"
                },
                {
                    "internalType": "uint256",
                    "name": "_goal",
                    "type": "uint256"
                },
                {
                    "internalType": "uint256",
                    "name": "_duration",
                    "type": "uint256"
                }
            ],
            "stateMutability": "nonpayable",
            "type": "constructor"
        },
        {
            "inputs": [
                {
                    "internalType": "address",
                    "name": "owner",
                    "type": "address"
                }
            ],
            "name": "OwnableInvalidOwner",
            "type": "error"
        },
        {
            "inputs": [
                {
                    "internalType": "address",
                    "name": "account",
                    "type": "address"
                }
            ],
            "name": "OwnableUnauthorizedAccount",
            "type": "error"
        },
        {
            "anonymous": false,
            "inputs": [
                {
                    "indexed": false,
                    "internalType": "address",
                    "name": "contributor",
                    "type": "address"
                },
                {
                    "indexed": false,
                    "internalType": "uint256",
                    "name": "amount",
                    "type": "uint256"
                }
            ],
            "name": "ContributionReceived",
            "type": "event"
        },
        {
            "anonymous": false,
            "inputs": [
                {
                    "indexed": false,
                    "internalType": "address",
                    "name": "owner",
                    "type": "address"
                },
                {
                    "indexed": false,
                    "internalType": "uint256",
                    "name": "amount",
                    "type": "uint256"
                }
            ],
            "name": "FundsWithdrawn",
            "type": "event"
        },
        {
            "anonymous": false,
            "inputs": [
                {
                    "indexed": true,
                    "internalType": "address",
                    "name": "previousOwner",
                    "type": "address"
                },
                {
                    "indexed": true,
                    "internalType": "address",
                    "name": "newOwner",
                    "type": "address"
                }
            ],
            "name": "OwnershipTransferred",
            "type": "event"
        },
        {
            "anonymous": false,
            "inputs": [
                {
                    "indexed": false,
                    "internalType": "address",
                    "name": "contributor",
                    "type": "address"
                },
                {
                    "indexed": false,
                    "internalType": "uint256",
                    "name": "amount",
                    "type": "uint256"
                }
            ],
            "name": "RefundsIssued",
            "type": "event"
        },
        {
            "inputs": [],
            "name": "contribute",
            "outputs": [],
            "stateMutability": "payable",
            "type": "function"
        },
        {
            "inputs": [
                {
                    "internalType": "address",
                    "name": "",
                    "type": "address"
                }
            ],
            "name": "contributions",
            "outputs": [
                {
                    "internalType": "uint256",
                    "name": "",
                    "type": "uint256"
                }
            ],
            "stateMutability": "view",
            "type": "function"
        },
        {
            "inputs": [
                {
                    "internalType": "uint256",
                    "name": "",
                    "type": "uint256"
                }
            ],
            "name": "contributors",
            "outputs": [
                {
                    "internalType": "address",
                    "name": "_contributor",
                    "type": "address"
                },
                {
                    "internalType": "uint256",
                    "name": "_amount",
                    "type": "uint256"
                }
            ],
            "stateMutability": "view",
            "type": "function"
        },
        {
            "inputs": [],
            "name": "details",
            "outputs": [
                {
                    "internalType": "address",
                    "name": "creator",
                    "type": "address"
                },
                {
                    "internalType": "string",
                    "name": "title",
                    "type": "string"
                },
                {
                    "internalType": "uint256",
                    "name": "goal",
                    "type": "uint256"
                },
                {
                    "internalType": "uint256",
                    "name": "deadline",
                    "type": "uint256"
                },
                {
                    "internalType": "uint256",
                    "name": "raisedAmount",
                    "type": "uint256"
                },
                {
                    "internalType": "bool",
                    "name": "successful",
                    "type": "bool"
                },
                {
                    "internalType": "bool",
                    "name": "fundsWithdrawn",
                    "type": "bool"
                }
            ],
            "stateMutability": "view",
            "type": "function"
        },
        {
            "inputs": [],
            "name": "getContributors",
            "outputs": [
                {
                    "components": [
                        {
                            "internalType": "address",
                            "name": "_contributor",
                            "type": "address"
                        },
                        {
                            "internalType": "uint256",
                            "name": "_amount",
                            "type": "uint256"
                        }
                    ],
                    "internalType": "struct Campaign.Contributor[]",
                    "name": "",
                    "type": "tuple[]"
                }
            ],
            "stateMutability": "view",
            "type": "function"
        },
        {
            "inputs": [],
            "name": "issueRefunds",
            "outputs": [],
            "stateMutability": "nonpayable",
            "type": "function"
        },
        {
            "inputs": [],
            "name": "owner",
            "outputs": [
                {
                    "internalType": "address",
                    "name": "",
                    "type": "address"
                }
            ],
            "stateMutability": "view",
            "type": "function"
        },
        {
            "inputs": [],
            "name": "renounceOwnership",
            "outputs": [],
            "stateMutability": "nonpayable",
            "type": "function"
        },
        {
            "inputs": [
                {
                    "internalType": "address",
                    "name": "newOwner",
                    "type": "address"
                }
            ],
            "name": "transferOwnership",
            "outputs": [],
            "stateMutability": "nonpayable",
            "type": "function"
        }
    ],
    "bytecode": "0x60806040523480156200001157600080fd5b5060405162001bbf38038062001bbf833981810160405281019062000037919062000439565b33600073ffffffffffffffffffffffffffffffffffffffff168173ffffffffffffffffffffffffffffffffffffffff1603620000ad5760006040517f1e4fbdf7000000000000000000000000000000000000000000000000000000008152600401620000a49190620004db565b60405180910390fd5b620000be816200014260201b60201c565b5083600160000160006101000a81548173ffffffffffffffffffffffffffffffffffffffff021916908373ffffffffffffffffffffffffffffffffffffffff1602179055508260018001908162000116919062000739565b508160016002018190555080426200012f91906200084f565b600160030181905550505050506200088a565b60008060009054906101000a900473ffffffffffffffffffffffffffffffffffffffff169050816000806101000a81548173ffffffffffffffffffffffffffffffffffffffff021916908373ffffffffffffffffffffffffffffffffffffffff1602179055508173ffffffffffffffffffffffffffffffffffffffff168173ffffffffffffffffffffffffffffffffffffffff167f8be0079c531659141344cd1fd0a4f28419497f9722a3daafe3b4186f6b6457e060405160405180910390a35050565b6000604051905090565b600080fd5b600080fd5b600073ffffffffffffffffffffffffffffffffffffffff82169050919050565b600062000247826200021a565b9050919050565b62000259816200023a565b81146200026557600080fd5b50565b60008151905062000279816200024e565b92915050565b600080fd5b600080fd5b6000601f19601f8301169050919050565b7f4e487b7100000000000000000000000000000000000000000000000000000000600052604160045260246000fd5b620002d48262000289565b810181811067ffffffffffffffff82111715620002f657620002f56200029a565b5b80604052505050565b60006200030b62000206565b9050620003198282620002c9565b919050565b600067ffffffffffffffff8211156200033c576200033b6200029a565b5b620003478262000289565b9050602081019050919050565b60005b838110156200037457808201518184015260208101905062000357565b60008484015250505050565b60006200039762000391846200031e565b620002ff565b905082815260208101848484011115620003b657620003b562000284565b5b620003c384828562000354565b509392505050565b600082601f830112620003e357620003e26200027f565b5b8151620003f584826020860162000380565b91505092915050565b6000819050919050565b6200041381620003fe565b81146200041f57600080fd5b50565b600081519050620004338162000408565b92915050565b6000806000806080858703121562000456576200045562000210565b5b6000620004668782880162000268565b945050602085015167ffffffffffffffff8111156200048a576200048962000215565b5b6200049887828801620003cb565b9350506040620004ab8782880162000422565b9250506060620004be8782880162000422565b91505092959194509250565b620004d5816200023a565b82525050565b6000602082019050620004f26000830184620004ca565b92915050565b600081519050919050565b7f4e487b7100000000000000000000000000000000000000000000000000000000600052602260045260246000fd5b600060028204905060018216806200054b57607f821691505b60208210810362000561576200056062000503565b5b50919050565b60008190508160005260206000209050919050565b60006020601f8301049050919050565b600082821b905092915050565b600060088302620005cb7fffffffffffffffffffffffffffffffffffffffffffffffffffffffffffffffff826200058c565b620005d786836200058c565b95508019841693508086168417925050509392505050565b6000819050919050565b60006200061a620006146200060e84620003fe565b620005ef565b620003fe565b9050919050565b6000819050919050565b6200063683620005f9565b6200064e620006458262000621565b84845462000599565b825550505050565b600090565b6200066562000656565b620006728184846200062b565b505050565b5b818110156200069a576200068e6000826200065b565b60018101905062000678565b5050565b601f821115620006e957620006b38162000567565b620006be846200057c565b81016020851015620006ce578190505b620006e6620006dd856200057c565b83018262000677565b50505b505050565b600082821c905092915050565b60006200070e60001984600802620006ee565b1980831691505092915050565b6000620007298383620006fb565b9150826002028217905092915050565b6200074482620004f8565b67ffffffffffffffff81111562000760576200075f6200029a565b5b6200076c825462000532565b620007798282856200069e565b600060209050601f831160018114620007b157600084156200079c578287015190505b620007a885826200071b565b86555062000818565b601f198416620007c18662000567565b60005b82811015620007eb57848901518255600182019150602085019450602081019050620007c4565b868310156200080b578489015162000807601f891682620006fb565b8355505b6001600288020188555050505b505050505050565b7f4e487b7100000000000000000000000000000000000000000000000000000000600052601160045260246000fd5b60006200085c82620003fe565b91506200086983620003fe565b925082820190508082111562000884576200088362000820565b5b92915050565b611325806200089a6000396000f3fe6080604052600436106100865760003560e01c8063715018a611610059578063715018a61461014e5780638da5cb5b14610165578063af157c1914610190578063d7bb99ba146101bb578063f2fde38b146101c557610086565b80633cb5d1001461008b57806342e94c90146100c95780634ae0b83114610106578063565974d31461011d575b600080fd5b34801561009757600080fd5b506100b260048036038101906100ad9190610c47565b6101ee565b6040516100c0929190610cc4565b60405180910390f35b3480156100d557600080fd5b506100f060048036038101906100eb9190610d19565b610242565b6040516100fd9190610d46565b60405180910390f35b34801561011257600080fd5b5061011b61025a565b005b34801561012957600080fd5b50610132610541565b6040516101459796959493929190610e0c565b60405180910390f35b34801561015a57600080fd5b50610163610633565b005b34801561017157600080fd5b5061017a610647565b6040516101879190610e82565b60405180910390f35b34801561019c57600080fd5b506101a5610670565b6040516101b29190610f99565b60405180910390f35b6101c361072f565b005b3480156101d157600080fd5b506101ec60048036038101906101e79190610d19565b610a33565b005b600781815481106101fe57600080fd5b90600052602060002090600202016000915090508060000160009054906101000a900473ffffffffffffffffffffffffffffffffffffffff16908060010154905082565b60086020528060005260406000206000915090505481565b60016003015442116102a1576040517f08c379a000000000000000000000000000000000000000000000000000000000815260040161029890611007565b60405180910390fd5b600160020154600160040154106102ed576040517f08c379a00000000000000000000000000000000000000000000000000000000081526004016102e490611073565b60405180910390fd5b6000600860003373ffffffffffffffffffffffffffffffffffffffff1673ffffffffffffffffffffffffffffffffffffffff168152602001908152602001600020541161036f576040517f08c379a0000000000000000000000000000000000000000000000000000000008152600401610366906110df565b60405180910390fd5b6000600860003373ffffffffffffffffffffffffffffffffffffffff1673ffffffffffffffffffffffffffffffffffffffff1681526020019081526020016000205490506000600860003373ffffffffffffffffffffffffffffffffffffffff1673ffffffffffffffffffffffffffffffffffffffff1681526020019081526020016000208190555060005b6007805490508110156104bd573373ffffffffffffffffffffffffffffffffffffffff1660078281548110610433576104326110ff565b5b906000526020600020906002020160000160009054906101000a900473ffffffffffffffffffffffffffffffffffffffff1673ffffffffffffffffffffffffffffffffffffffff16036104b057600060078281548110610496576104956110ff565b5b9060005260206000209060020201600101819055506104bd565b80806001019150506103fb565b503373ffffffffffffffffffffffffffffffffffffffff166108fc829081150290604051600060405180830381858888f19350505050158015610504573d6000803e3d6000fd5b507f7c96c3289edb7c4c62f14bf0d207c88bd8ed8eadc38c7a48365b1fa48c20ad2a3382604051610536929190610cc4565b60405180910390a150565b60018060000160009054906101000a900473ffffffffffffffffffffffffffffffffffffffff16908060010180546105789061115d565b80601f01602080910402602001604051908101604052809291908181526020018280546105a49061115d565b80156105f15780601f106105c6576101008083540402835291602001916105f1565b820191906000526020600020905b8154815290600101906020018083116105d457829003601f168201915b5050505050908060020154908060030154908060040154908060050160009054906101000a900460ff16908060050160019054906101000a900460ff16905087565b61063b610ab9565b6106456000610b40565b565b60008060009054906101000a900473ffffffffffffffffffffffffffffffffffffffff16905090565b60606007805480602002602001604051908101604052809291908181526020016000905b8282101561072657838290600052602060002090600202016040518060400160405290816000820160009054906101000a900473ffffffffffffffffffffffffffffffffffffffff1673ffffffffffffffffffffffffffffffffffffffff1673ffffffffffffffffffffffffffffffffffffffff16815260200160018201548152505081526020019060010190610694565b50505050905090565b6001600301544210610776576040517f08c379a000000000000000000000000000000000000000000000000000000000815260040161076d906111da565b60405180910390fd5b600034116107b9576040517f08c379a00000000000000000000000000000000000000000000000000000000081526004016107b09061126c565b60405180910390fd5b6000600860003373ffffffffffffffffffffffffffffffffffffffff1673ffffffffffffffffffffffffffffffffffffffff16815260200190815260200160002054036108ae57600760405180604001604052803373ffffffffffffffffffffffffffffffffffffffff16815260200134815250908060018154018082558091505060019003906000526020600020906002020160009091909190915060008201518160000160006101000a81548173ffffffffffffffffffffffffffffffffffffffff021916908373ffffffffffffffffffffffffffffffffffffffff160217905550602082015181600101555050610986565b60005b600780549050811015610984573373ffffffffffffffffffffffffffffffffffffffff16600782815481106108e9576108e86110ff565b5b906000526020600020906002020160000160009054906101000a900473ffffffffffffffffffffffffffffffffffffffff1673ffffffffffffffffffffffffffffffffffffffff160361097757346007828154811061094b5761094a6110ff565b5b9060005260206000209060020201600101600082825461096b91906112bb565b92505081905550610984565b80806001019150506108b1565b505b34600860003373ffffffffffffffffffffffffffffffffffffffff1673ffffffffffffffffffffffffffffffffffffffff16815260200190815260200160002060008282546109d591906112bb565b9250508190555034600160040160008282546109f191906112bb565b925050819055507f1bb460ccaaf70fbacfec17a376f8acbd278c1405590ffcc8ebe4b88daf4f64ad3334604051610a29929190610cc4565b60405180910390a1565b610a3b610ab9565b600073ffffffffffffffffffffffffffffffffffffffff168173ffffffffffffffffffffffffffffffffffffffff1603610aad5760006040517f1e4fbdf7000000000000000000000000000000000000000000000000000000008152600401610aa49190610e82565b60405180910390fd5b610ab681610b40565b50565b610ac1610c04565b73ffffffffffffffffffffffffffffffffffffffff16610adf610647565b73ffffffffffffffffffffffffffffffffffffffff1614610b3e57610b02610c04565b6040517f118cdaa7000000000000000000000000000000000000000000000000000000008152600401610b359190610e82565b60405180910390fd5b565b60008060009054906101000a900473ffffffffffffffffffffffffffffffffffffffff169050816000806101000a81548173ffffffffffffffffffffffffffffffffffffffff021916908373ffffffffffffffffffffffffffffffffffffffff1602179055508173ffffffffffffffffffffffffffffffffffffffff168173ffffffffffffffffffffffffffffffffffffffff167f8be0079c531659141344cd1fd0a4f28419497f9722a3daafe3b4186f6b6457e060405160405180910390a35050565b600033905090565b600080fd5b6000819050919050565b610c2481610c11565b8114610c2f57600080fd5b50565b600081359050610c4181610c1b565b92915050565b600060208284031215610c5d57610c5c610c0c565b5b6000610c6b84828501610c32565b91505092915050565b600073ffffffffffffffffffffffffffffffffffffffff82169050919050565b6000610c9f82610c74565b9050919050565b610caf81610c94565b82525050565b610cbe81610c11565b82525050565b6000604082019050610cd96000830185610ca6565b610ce66020830184610cb5565b9392505050565b610cf681610c94565b8114610d0157600080fd5b50565b600081359050610d1381610ced565b92915050565b600060208284031215610d2f57610d2e610c0c565b5b6000610d3d84828501610d04565b91505092915050565b6000602082019050610d5b6000830184610cb5565b92915050565b600081519050919050565b600082825260208201905092915050565b60005b83811015610d9b578082015181840152602081019050610d80565b60008484015250505050565b6000601f19601f8301169050919050565b6000610dc382610d61565b610dcd8185610d6c565b9350610ddd818560208601610d7d565b610de681610da7565b840191505092915050565b60008115159050919050565b610e0681610df1565b82525050565b600060e082019050610e21600083018a610ca6565b8181036020830152610e338189610db8565b9050610e426040830188610cb5565b610e4f6060830187610cb5565b610e5c6080830186610cb5565b610e6960a0830185610dfd565b610e7660c0830184610dfd565b98975050505050505050565b6000602082019050610e976000830184610ca6565b92915050565b600081519050919050565b600082825260208201905092915050565b6000819050602082019050919050565b610ed281610c94565b82525050565b610ee181610c11565b82525050565b604082016000820151610efd6000850182610ec9565b506020820151610f106020850182610ed8565b50505050565b6000610f228383610ee7565b60408301905092915050565b6000602082019050919050565b6000610f4682610e9d565b610f508185610ea8565b9350610f5b83610eb9565b8060005b83811015610f8c578151610f738882610f16565b9750610f7e83610f2e565b925050600181019050610f5f565b5085935050505092915050565b60006020820190508181036000830152610fb38184610f3b565b905092915050565b7f43616d706169676e206973207374696c6c206f6e676f696e6700000000000000600082015250565b6000610ff1601983610d6c565b9150610ffc82610fbb565b602082019050919050565b6000602082019050818103600083015261102081610fe4565b9050919050565b7f46756e64696e6720676f616c20776173206d6574000000000000000000000000600082015250565b600061105d601483610d6c565b915061106882611027565b602082019050919050565b6000602082019050818103600083015261108c81611050565b9050919050565b7f4e6f20636f6e747269627574696f6e7320746f20726566756e64000000000000600082015250565b60006110c9601a83610d6c565b91506110d482611093565b602082019050919050565b600060208201905081810360008301526110f8816110bc565b9050919050565b7f4e487b7100000000000000000000000000000000000000000000000000000000600052603260045260246000fd5b7f4e487b7100000000000000000000000000000000000000000000000000000000600052602260045260246000fd5b6000600282049050600182168061117557607f821691505b6020821081036111885761118761112e565b5b50919050565b7f43616d706169676e2068617320656e6465640000000000000000000000000000600082015250565b60006111c4601283610d6c565b91506111cf8261118e565b602082019050919050565b600060208201905081810360008301526111f3816111b7565b9050919050565b7f436f6e747269627574696f6e206d75737420626520677265617465722074686160008201527f6e207a65726f0000000000000000000000000000000000000000000000000000602082015250565b6000611256602683610d6c565b9150611261826111fa565b604082019050919050565b6000602082019050818103600083015261128581611249565b9050919050565b7f4e487b7100000000000000000000000000000000000000000000000000000000600052601160045260246000fd5b60006112c682610c11565b91506112d183610c11565b92508282019050808211156112e9576112e861128c565b5b9291505056fea26469706673582212201ce96cc9489c37141f0091319e6b0689b3bb75fdf80610ef7db4efe6c9a703d564736f6c63430008180033",
    "linkReferences": {},
    "deployedLinkReferences": {}
}